:020000040800F2
:10000000002000201D03000869030008CF0B000832
:1000100000000000000000000000000000000000E0
:10002000000000000000000000000000690300085C
:10003000000000000000000069030008050300083C
:1000400069030008690300086903000869030008E0
:1000500069030008690300086903000869030008D0
:1000600069030008690300086903000869030008C0
:1000700069030008690300086903000869030008B0
:100080006903000869030008000000006903000814
:100090006903000869030008690300086903000890
:1000A0006903000869030008690300086903000880
:1000B0006903000800000000690300080000000058
:1000C0005FF808F180B582B000AF7860154B1B78FF
:1000D0005A1CD1B2134A11701A1C7B68D9B2124B48
:1000E0009954104B1B781A1C0F4B002199540D4B3F
:1000F0001B7801330F2B05D87B680A2B02D07B6855
:10010000002B0BD1074B00221A70074B0420191C3F
:10011000002200F053FD031E00D0C046BD4602B0D1
:1001200080BDC0465404002044040020B0B582B015
:1001300000AF021C3960FB1D1A70FB1D1B787F2B62
:100140002FD92D4CFB1D1B781A1C0F231340083B85
:100150009908294AFB1D1B78181C0F230340083BF4
:100160009B0806339B00D3185B68FA1D1278101C9D
:1001700003220240D200101CFF228240D2431A40C8
:100180003B689B01FF200340F81D0078051C0320FD
:100190002840C00083401A438B1D9B00E3185A601F
:1001A00026E0164CFB1D1B785BB29B081349FA1D19
:1001B000127852B29208C03292005258F91D097852
:1001C000081C03210140C900081CFF218140C943CC
:1001D00011403A689201FF200240F81D0078051C8A
:1001E00003202840C00082400A43C0339B001A51BC
:1001F000BD4602B0B0BDC04600ED00E000E100E049
:1002000080B582B000AF78607B680E4A934201D916
:10021000012312E00C4B7A681202120A013A5A606A
:1002200001235B42181C0321FFF780FF064B0022CD
:100230009A60054B07221A600023181CBD4602B0C5
:1002400080BDC046FFFFFF0010E000E080B500AFBA
:10025000C046074B1B68181C064900F0C3FC031C72
:10026000181CFFF7CDFF031EF3D1BD4680BDC0466D
:100270003004002040420F0080B500AF054B1B68E2
:10028000002B04D0034B1B685A1E024B1A60BD465C
:1002900080BDC0465804002080B500AF054BFA224F
:1002A00092001A60C046034B1B68002BFBD1BD4671
:1002B00080BDC0465804002080B582B000AF786091
:1002C00001E0FFF7E9FF7B685A1E7A60002BF8D146
:1002D000BD4602B080BDC04680B500AFFFF7B6FF97
:1002E000064B181C00F056FB054B181C00F052FB87
:1002F000FA239B00181CFFF7DFFFF5E7080D000845
:10030000100D000880B500AF034B181C00F042FB35
:10031000FFF7B2FFBD4680BD180D00080C488546AA
:10032000002103E00B4B5B58435004310A480B4B50
:1003300042189A42F6D30A4A02E0002313600432BC
:10034000084B9A42F9D300F083FBFFF7C5FFFEE7A5
:1003500000200020D00D00080000002044040020F0
:10036000440400205C040020FEE7000080B582B059
:1003700000AF021CFB1D1A70FB1D1B78181CFFF739
:10038000A1FEBD4602B080BD80B582B000AF7860EE
:100390000A1CFB1C1A707B68FA1C12781A70012365
:1003A000181CBD4602B080BD80B584B000AF786037
:1003B00039600023FB600AE07B685A1C7A603A6867
:1003C000511C396012781A70FB680133FB603B687E
:1003D0001B78002BF0D1FB68181CBD4604B080BD13
:1003E00090B587B000AFF8607A603B600B23FB18D4
:1003F0000A1C1A7000237B617B68013B7B603B68B1
:10040000092B18D93B68181C0A2100F0EBFB031CD0
:100410001C1CF9680B23FB181A787B68081C111C3C
:100420001A1C231CFFF7DCFF031C7B617B69FA6845
:10043000D318FB6014E010E0FA680B23FB181B785C
:10044000101C191CFFF7A0FFFB680133FB607B69E0
:1004500001337B617B68013B7B607B68002BEBDCBD
:100460003B68181C0A2100F043FC0B1CDBB2303344
:10047000DBB2FA68101C191CFFF786FF021C7B69AF
:100480009B187B617B69181CBD4607B090BDC046B8
:1004900090B587B000AFF8607A603B600B23FB1823
:1004A0000A1C1A7000237B613B68002B03DA3B684F
:1004B0005B423B6101E03B683B617B68013B7B60E9
:1004C0003B69092B31D93B68002B15DA3B69181CB5
:1004D0000A2100F087FB031C5B421C1CF9680B23FC
:1004E000FB181A787B68081C111C1A1C231CFFF7C8
:1004F000CFFF031C7B6113E03B69181C0A2100F04D
:1005000071FB031C1C1CF9680B23FB181A787B6811
:10051000081C111C1A1C231CFFF7BAFF031C7B616B
:100520007B69FA68D318FB6029E03B68002B02DA8C
:100530007B68013B7B6010E0FA680B23FB181B789B
:10054000101C191CFFF720FFFB680133FB607B695F
:1005500001337B617B68013B7B607B68002BEBDCBC
:100560003B68002B0BDAFB68181C2D21FFF70CFFF2
:10057000021C7B699B187B61FB680133FB603B6954
:10058000181C0A2100F0B4FB0B1CDBB23033DBB2C9
:10059000FA68101C191CFFF7F7FE021C7B699B18F8
:1005A0007B617B69181CBD4607B090BDB0B588B0B3
:1005B00002AFF860081C7A60191C0B23FB18021CA0
:1005C0001A700A23FB180A1C1A7000237B617B68CF
:1005D000013B7B60BB6A1B0917D0BB6A1B09F8682B
:1005E0000B22BA1811787D680A22BA181478009381
:1005F0002A1C231CFFF7DAFF021C7B699B187B6116
:100600007B69FA68D318FB6014E010E0FA680B23EA
:10061000FB181B78101C191CFFF7B6FEFB68013392
:10062000FB607B6901337B617B68013B7B607B689E
:10063000002BEBDCBB6A0F221340092B0CD8BB6AE2
:10064000DBB20F221340DBB23033DBB2FA68101C8E
:10065000191CFFF799FE1DE00A23FB181B78002BDD
:100660000CD0BB6ADBB20F221340DBB23733DBB2F4
:10067000FA68101C191CFFF787FE0BE0BB6ADBB29F
:100680000F221340DBB25733DBB2FA68101C191C7F
:10069000FFF77AFE7B6901337B617B69181CBD46DD
:1006A00006B0B0BDB0B58AB002AFF860B9607A608C
:1006B0003B600023BB6100237B61FB68002B02D001
:1006C000FB6800221A70E6E07B681B78252B0BD0B4
:1006D000FB685A1CFA607A68511C796012781A70AB
:1006E0007B6901337B61D6E07B6801331B78252B66
:1006F0000BD1FB685A1CFA6025221A707B68023302
:100700007B607B6901337B61C5E01F23FB182022DE
:100710001A701E23FB1800221A707B6801337B605D
:100720007B681B78302B06D11F23FB1830221A70F0
:100730007B6801337B6012E01E23FB181B781A1CB8
:100740009200D318DB18DAB27B681B78D318DAB2C0
:100750001E23FB18303A1A707B6801337B607B687C
:100760001B782F2B03D97B681B78392BE4D91E23E8
:10077000FB181A787B69D3181A1EBB689A4207D9EE
:10078000BB68D9B27B69DAB21E23FB188A1A1A70C9
:100790007B681B78583B202B6FD89A004D4BD318A1
:1007A0001B689F461E23FB181D783B681A1D3A6084
:1007B0001C68FA681F23FB181B78101C191C2A1CC4
:1007C000231CFFF765FE031CBB6159E01E23FB18C9
:1007D0001D783B681A1D3A601C68FA681F23FB18D5
:1007E0001B78101C191C2A1C231CFFF7F9FD031C85
:1007F000BB6145E01E23FB181C783B681A1D3A605C
:100800001B68F9681F22BA1812780093081C111C83
:10081000221C0023FFF7CAFE031CBB6130E01E232D
:10082000FB181C783B681A1D3A601B68F9681F2288
:10083000BA1812780093081C111C221C0123FFF720
:10084000B5FE031CBB611BE03B681A1D3A601B68C8
:10085000FA68101C191CFFF7A7FD031CBB610FE011
:100860003B681A1D3A601B68DBB2FA68101C191C41
:10087000FFF78AFD031CBB6102E001235B4225E018
:100880007B6801337B60BB69FA68D318FB607A69C7
:10089000BB69D3187B617B681B78002B04D07A6915
:1008A000BB689A4200D20FE77A69BB689A4203D2CA
:1008B000FB6800221A7008E0FB68013BFB60FB68E4
:1008C00000221A707B69013B7B617B69181CBD4665
:1008D00008B0B0BD280D000880B584B000AFF86046
:1008E000B9607A60F968BA687B68081C6421FFF710
:1008F000D9FE031C181CBD4604B080BD90B5A7B03E
:1009000000AFF860B9607A601023FB18144A13CA6C
:1009100013C313CA13C313CA13C33423F918BA6811
:100920007B68081C111C1A1CFFF7D6FF031E632BE3
:1009300009DD0C4B1B68DB681022BA18101C191C4F
:1009400000F060F8FEE73423FA18FB68101C191C4D
:1009500000F058F8031C181CBD4627B090BDC046D7
:10096000AC0D00082804002080B582B000AF78608C
:100970003960074B1B6899687A683B68081C111C32
:100980001A1CFFF7BBFF031C181CBD4602B080BD3C
:10099000280400200FB480B582B000AF1423FB18E8
:1009A0003B603A693B68101C191CFFF7DDFF031C14
:1009B0007B607B68181CBD4602B080BC08BC04B0DC
:1009C0001847C04680B582B000AF786039600C4BE4
:1009D0001B689A683B689A4205D0094B1B68DA6825
:1009E0003B689A4206D17B68DBB2181CFFF7BEFC5D
:1009F0007B6801E001235B42181CBD4602B080BD4C
:100A00002804002080B584B000AF786039600023EE
:100A1000FB6013E07B681B781A1C3B68101C191CD8
:100A2000FFF7D0FF031C013302D101235B420AE030
:100A3000FB680133FB607B6801337B607B681B785C
:100A4000002BE7D1FB68181CBD4604B080BDC04632
:100A500080B500AF1B4B1B4A126801210A431A6084
:100A6000184B184A526818490A405A60154B154AE3
:100A7000126816490A401A60124B124A1268144949
:100A80000A401A600F4B0F4A526812490A405A60D6
:100A90000C4B0C4AD26A0F218A43DA62094B094A8D
:100AA000126B0D490A401A63064B064A526B01212C
:100AB0008A435A63034B00229A6000F00FF8BD4648
:100AC00080BDC046001002400CB8FFF8FFFFF6FEE4
:100AD000FFFFFBFFFFFFC0FFACFEFFFF80B582B052
:100AE00000AF00237B6000233B60314B304A12682B
:100AF000802149020A431A602D4B1A6880239B0209
:100B000013403B607B6801337B603B68002B04D162
:100B10007A68A023DB019A42EED1254B1A68802324
:100B20009B02134002D001233B6001E000233B60A5
:100B30003B68012B38D11F4B11221A601C4B1C4AF9
:100B400052685A601A4B1A4A52685A60184B184A2F
:100B5000526819490A405A60154B154A5268882153
:100B600049030A435A60124B114A12688021490412
:100B70000A431A60C0460E4B1A6880239B04134038
:100B8000F9D00B4B0A4A526803218A435A60084B3A
:100B9000074A526802210A435A60C046044B5B6808
:100BA0000C221340082BF9D1BD4602B080BDC046CF
:100BB0000010024000200240FFFFC0FFABBE01E07A
:100BC00000207047002A00D010600120704706986E
:100BD0000188034A914202D1043006907047FEE733
:100BE000ABBE0000002243088B4274D303098B4242
:100BF0005FD3030A8B4244D3030B8B4228D3030CED
:100C00008B420DD3FF22090212BA030C8B4202D38E
:100C10001212090265D0030B8B4219D300E0090AB6
:100C2000C30B8B4201D3CB03C01A5241830B8B42BF
:100C300001D38B03C01A5241430B8B4201D34B03A8
:100C4000C01A5241030B8B4201D30B03C01A52410D
:100C5000C30A8B4201D3CB02C01A5241830A8B4292
:100C600001D38B02C01A5241430A8B4201D34B027B
:100C7000C01A5241030A8B4201D30B02C01A5241DF
:100C8000CDD2C3098B4201D3CB01C01A5241830993
:100C90008B4201D38B01C01A524143098B4201D3CD
:100CA0004B01C01A524103098B4201D30B01C01AF8
:100CB0005241C3088B4201D3CB00C01A5241830872
:100CC0008B4201D38B00C01A524143088B4201D39F
:100CD0004B00C01A5241411A00D2014652411046FF
:100CE0007047FFE701B5002000F00CF802BDC046D8
:100CF0000029F7D003B5FFF775FF0EBC4243891AF0
:100D00001847C0467047C0465374617274656400EA
:100D100031736563000000005379735469636B5F3E
:100D200048616E646C6572001E0800087A0800084D
:100D30007A0800087A0800087A0800087A0800088B
:100D40007A0800087A0800087A0800087A0800087B
:100D50007A08000860080008A40700087A0800085C
:100D60007A0800087A0800087A080008A407000832
:100D70007A0800087A0800087A0800087A0800084B
:100D80007A0800087A0800087A0800087A0800083B
:100D90007A080008480800087A080008CC0700080C
:100DA0007A0800087A080008F40700087374646978
:100DB0006F2E633A20696E637265617365204D41E1
:100DC000585F535452494E475F53495A450A0D00E4
:100DD0000000000000000000010000000000000012
:100DE0000000000000000000000000000000000003
:100DF00000000000000000000000000000000000F3
:100E000000000000000000000000000000000000E2
:100E100000000000000000000000000000000000D2
:1011F00000000000000000000000002000000000CF
:10120000006CDC020000000000000000010203048A
:0412100006070809BC
:0400000508000000EF
:00000001FF
